:100000000C948A000C9474120C94AB000C94E912BA
:100010000C9408130C94AB000C94AB000C94AB0044
:100020000C94AB000C94AB000C94AB000C94AB00A4
:100030000C94AB000C94AB000C94AB000C94AB0094
:100040000C94AB000C9402120C94AB000C94AB001B
:100050000C94AB000C94DD110C94AB000C94AB0031
:100060000C94AB000C941F130C94AB000C94AB00DD
:100070000C94AB000C943C130C94AB000C94AB00B0
:100080000C9465120C94AB000C94AB000C94AB0078
:100090000C94AB000C94AB000C94AB000C94AB0034
:1000A0000C94AB000C94AB000C94AB000C94AB0024
:1000B0000C94AB000C94AB000C94AB000C94AB0014
:1000C0000C94AB000C94AB000C94AB000C9432136A
:1000D0000C94AB000C94AB000C94AB000C94AB00F4
:1000E0000C94AB000C94900E0C94CA0B0C94AD00C5
:1000F0000C94CE070C9453040C946A050C946D0A6E
:100100000C942D0D0C9465060C9405100C94B601FE
:100110000C94210311241FBECFEFD1E2DEBFCDBF6F
:1001200000E00CBF16E0A0E0B2E0EAE5FCE200E08F
:100130000BBF02C007900D92A636B107D9F727E092
:10014000A6E6B6E001C01D92A93BB207E1F70E9406
:10015000E2140C942B160C94000088E198E00FB682
:10016000F894A895809360000FBE90936000FFCF35
:1001700087FF27C0749A86FF26C0759A85FF25C021
:10018000A59A84FF24C0739A9091020183FF21C035
:100190009860909302019091020182FF1CC09061CF
:1001A000909302019091020181FF17C09062909399
:1001B000020180FF14C080910201806480930201DB
:1001C00008957498D8CF7598D9CFA598DACF739839
:1001D000DBCF977FDECF9F7EE3CF9F7DE8CF8091FF
:1001E00002018F7BEBCF0F931F93CF93DF93FC0123
:1001F00020813181E3E3F3E0D0E0C0E04081518130
:100200004217530719F54281538146175707F1F4F6
:100210008C01FE01EE0FFF1FEE0FFF1FE153FD4F9C
:100220000280F381E02D199586E08C9FF0018D9F6F
:10023000F00D1124ED5CFC4F84819581F8019183D0
:100240008083DF91CF911F910F910895219636966B
:10025000C931D10599F6F5CFCF92DF92EF92FF9297
:10026000CF9381B1806F81B982B1806F82B984B13F
:10027000806C84B98DB188638DB98EB188638EB975
:100280009D9AA59A809101018867809301018091D0
:100290000201886780930201809107018160809349
:1002A000070181B18F6081B9109A0E948B130E945F
:1002B0005F140E949C140E94BF140E9410140E949C
:1002C0001E140E94CF1383B7817F83BF7894C090A0
:1002D0006E06D0906F06E0907006F090710689EC83
:1002E00093E00E94D614C6E420E08091300187FF9D
:1002F00008C080913601233019F48F3609F4C0E527
:100300002F5F80916E0690916F06A0917006B0915C
:1003100071068C199D09AE09BF0985369105A105A5
:10032000B10518F385ED93E00E94D6148C2F0E943E
:10033000721486E4CF91FF90EF90DF90CF900C94F1
:100340007214E29AF894E9E6F0E080818063808399
:10035000EA9A78940895EA980895E9E6F0E08081B1
:10036000806C8083EB9A0895EB9808958F929F920A
:10037000AF92BF92CF92DF92EF92FF920F931F93B3
:10038000CF93DF93CDB7DEB72C970FB6F894DEBFCF
:100390000FBECDBF87B19091390221E030E0A901B5
:1003A00001C0440F9A95EAF7842B87B94FEF69E6AD
:1003B00078E1415060407040E1F700C0000047B173
:1003C00080913302F90102C0EE0FFF1F8A95E2F718
:1003D000CF019091360201C0220F9A95EAF7822B45
:1003E000842B87B90E94B7130E94AB130E94AD0102
:1003F0000E942D1440916E0650916F066091700618
:100400007091710610E080916906882309F468C034
:10041000163008F530E020E0F901E052F94F808114
:10042000A12FB0E0FD01EE0FFF1FEA0FFB1FED59FA
:10043000FD4FE20FF31F9081891B990B97FF03C0BB
:10044000919581959109C3970CF01F5F2F5F3F4FE6
:100450002330310509F7109269068091E4069091E6
:10046000E506A091E606B091E7068933914CA140DC
:10047000B10550F1C090E406D090E506E090E606A4
:10048000F090E7068091B3079091B407A091B5076B
:10049000B091B6078C0D9D1DAE1DBF1D8093B30797
:1004A0009093B407A093B507B093B6072091E906DF
:1004B0003091EA068091B7079091B807820F931F99
:1004C0009093B8078093B7071092E4061092E50660
:1004D0001092E6061092E7061092EA061092E906DC
:1004E00080916E0690916F06A0917006B091710692
:1004F000841B950BA60BB70B813D9740A105B10559
:1005000008F481CF0E94B1130E9433140E94B401F9
:100510002F9A4FEF60E772E0415060407040E1F782
:1005200000C00000809112020E94B8008FEF93ED8E
:10053000E0E381509040E040E1F700C000000E94FD
:10054000D5134C01809106020E94B800FFEF23ED05
:1005500040E3F15020404040E1F700C000000E941D
:10056000D5135C01809109020E94B8006FEF73ED12
:1005700080E3615070408040E1F700C000000E94BD
:10058000D5136C0180910C020E94B8009FEFE3ED3F
:10059000F0E39150E040F040E1F700C000000E941D
:1005A000D5137C0180910F020E94B8002FEF43ED1C
:1005B00060E3215040406040E1F700C000000E942D
:1005C000D5132F984091B3075091B4076091B507A8
:1005D0007091B6072091B7073091B80720E5153024
:1005E00009F026E4298320E52A839C828B82BE823F
:1005F000AD82D886CF82FA86E9869C878B878E016A
:100600000F5F1F4F7E017DE0E70EF11CF801819125
:100610008F010E9472140E151F05C1F72C960FB69C
:10062000F894DEBF0FBECDBFDF91CF911F910F9128
:10063000FF90EF90DF90CF90BF90AF909F908F9002
:1006400008954F925F926F927F928F929F92AF9296
:10065000BF92EF92FF920F931F93CF93DF9300D03F
:1006600000D0CDB7DEB788B19091390221E030E0FB
:1006700001C0220F9A95EAF7822B88B980906E0606
:1006800090906F06A0907006B0907106E29AF89470
:1006900080916900806380936900EA9A78940E944F
:1006A000AD010E942D142F9A1092E0061092E106DF
:1006B0001092E206E0E010E000E0412C512C320103
:1006C00040E050E0BA0130E020E0F12CE12C8091D4
:1006D0006906882329F18091E0068E1B990B97FF0C
:1006E00003C09195819591098C3491058CF031303E
:1006F00009F499C08091E006E81708F0ACC040907A
:100700006E0650906F06609070067090710631E032
:10071000E091E0068091E1068091E2061092690680
:1007200080916706882371F0213009F496C04091CA
:100730006E0650916F06609170067091710621E00F
:100740001092670680916E0690916F06A0917006D8
:10075000B091710688199909AA09BB098932934297
:10076000A105B10508F4B3CF809115020E94B8002D
:100770002FEF69E678E1215060407040E1F700C05A
:1007800000000E94D5135C012F980E9433140E9430
:10079000B4010E94AB0148B18091330221E030E006
:1007A000F90102C0EE0FFF1F8A95E2F7CF01909189
:1007B000360201C0220F9A95EAF7822B842B88B962
:1007C000FFEF2DE369E4F15020406040E1F700C005
:1007D0000000FA82E9821C830B83BE82AD828E0107
:1007E0000F5F1F4F7E0177E0E70EF11CF80181914A
:1007F0008F010E947214E016F106C1F726960FB61B
:10080000F894DEBF0FBECDBFDF91CF911F910F9146
:10081000FF90EF90BF90AF909F908F907F906F90E0
:100820005F904F90089580916E0690916F06A09111
:100830007006B09171068D579140A109B1098419D4
:100840009509A609B7098797A105B10508F060CFFA
:100850008FEFE81AF80A30E05BCF80916E06909136
:100860006F06A0917006B0917106841B950BA60BC4
:10087000B70B83389340A105B10598F480916E06BB
:1008800090916F06A0917006B0917106841B950B34
:10089000A60BB70B803A9140A105B10510F00F5F90
:1008A0001F4F20E04DCFCF92DF92EF92FF920F9338
:1008B0001F93CF93DF9348B18091390221E030E05C
:1008C000B90102C0660F771F8A95E2F7CB018095C8
:1008D000842388B97FEF89E698E171508040904089
:1008E000E1F700C0000048B180913302B90102C0B5
:1008F000660F771F8A95E2F7CB0190913602B90116
:1009000001C0660F9A95EAF7862B8095842388B9F3
:100910007FEF87EA91E6715080409040E1F700C098
:100920000000809107019091510201C0220F9A9519
:10093000EAF7282B209307018091070182608093BA
:10094000070180910801826080930801C0906E06C3
:10095000D0906F06E0907006F09071060E94AD0195
:100960000E942D140E9439141092E4061092E5069C
:100970001092E6061092E7061092EA061092E90637
:100980000E94B7130E94AB1380916900836080932B
:100990006900E89AC0E000E010E041E0D0E080911A
:1009A00069068823A1F08091E206811B990B97FFCD
:1009B00003C0919581959109C3970CF0DF5F8091F9
:1009C000E0068091E1061091E2061092690680919E
:1009D00076068823D9F030E020E090E080E0F9014D
:1009E000EE0FFF1FE551F94F51815081850F911D89
:1009F0002F5F3F4F2436310591F780549F4101E02E
:100A00008438934008F400E01092760680916E06D8
:100A100090916F06A0917006B09171068C199D0996
:100A2000AE09BF09853F9140A105B105D0F044232F
:100A3000C1F06091E4067091E5068091E606909120
:100A4000E7062091E9063091EA0650E040E00E9476
:100A50000B15C1E02A3031054105510508F4C0E00D
:100A600040E080916E0690916F06A0917006B09163
:100A700071068C199D09AE09BF0989389341A105FA
:100A8000B10508F48CCF0E94B1130E94B4010E94FA
:100A900033140E943F14E898D63090F0011116C02C
:100AA000C11116C083E30E94721480E5DF91CF91DB
:100AB0001F910F91FF90EF90DF90CF900C947214E4
:100AC00080E08F5C0E94721486E4F0CF81E0F9CF61
:100AD00082E0F7CFBF92CF92DF92EF92FF920F9317
:100AE0001F93CF93DF938091070190914E0221E0F5
:100AF00030E001C0220F9A95EAF7822B809307011C
:100B0000C0906E06D0906F06E0907006F09071066F
:100B10000E94AD010E942D140E9439140E94B71347
:100B20000E94AB1380916900836080936900E89A0A
:100B3000C0E0B12C00E011E041E0D0E08091690616
:100B40008823A1F08091E106801B990B97FF03C0D9
:100B5000919581959109C3970CF0DF5F8091E00634
:100B60000091E1068091E206109269068091760676
:100B70008823E1F030E020E090E080E0F901EE0F22
:100B8000FF1FE551F94F51815081850F911D2F5F56
:100B90003F4F2436310591F780549F41BB24B394D5
:100BA0008438934008F4B12C1092760680916E063A
:100BB00090916F06A0917006B09171068C199D09F5
:100BC000AE09BF098D3D9540A105B10578F011230F
:100BD00069F01092E4061092E5061092E606109273
:100BE000E7061092EA061092E90610E080916E0680
:100BF00090916F06A0917006B09171068C199D09B5
:100C0000AE09BF09813D9740A105B105F8F0442325
:100C1000E9F06091E4067091E5068091E606909116
:100C2000E7062091E9063091EA0650E040E00E9494
:100C30000B15CA01B9010E945C150E94C8150E94DB
:100C40002D15C1E0693208F0C0E040E080916E06E9
:100C500090916F06A0917006B09171068C199D0954
:100C6000AE09BF0989389341A105B10508F466CFE3
:100C70000E94B1130E9433140E94B4010E943F14D9
:100C8000E898809108018D7F80930801D63098F014
:100C9000B11017C0C11117C083E30E94721480E520
:100CA000DF91CF911F910F91FF90EF90DF90CF9048
:100CB000BF900C94721480E08F5C0E94721486E4E2
:100CC000EFCF81E0F9CF82E0F7CF2F923F924F92A2
:100CD0005F926F927F928F929F92AF92BF92CF92CC
:100CE000DF92EF92FF920F931F93CF93DF9300D089
:100CF000CDB7DEB7809107019091540221E030E03A
:100D000001C0220F9A95EAF7822B80930701859AFA
:100D10008D9A40906E0650906F06609070067090AD
:100D200071060E94A1010E94AD010E942D140E9433
:100D3000B7130E94AB131092E0061092E1061092D6
:100D4000E206212C812C912C5401C12CD12C76014E
:100D500019821B821A82312C20E010E000E0809181
:100D60006906882341F18091E0068219990B97FF6B
:100D700003C09195819591098C3491059CF03B813C
:100D8000313009F4C2C08091E006281608F0D3C0C3
:100D900080906E0690906F06A0907006B0907106DD
:100DA00061E06B832090E0068091E1068091E2068D
:100DB0002F5F1092690680916706882381F0109258
:100DC00067067A81713009F4B8C0C0906E06D09081
:100DD0006F06E0907006F090710681E08A832A30F9
:100DE00031F56091E4067091E5068091E6069091F8
:100DF000E7062091E9063091EA0650E040E00E94C3
:100E00000B15CA01B9010E945C150E94C8150E9409
:100E10002D158B011092E4061092E5061092E6065D
:100E20001092E7061092EA061092E90620E08091FF
:100E30006E0690916F06A0917006B09171068419AC
:100E40009509A609B70981319742A105B10508F4B2
:100E500086CF8D9848B18091390221E030E0B90108
:100E600002C0660F771F8A95E2F7CB01909133029B
:100E7000B90101C0660F9A95EAF7862B842B9091F1
:100E80003602A90101C0440F9A95EAF7842B88B96C
:100E9000809108019091540201C0220F9A95EAF7BF
:100EA000282B209308010E94B1130E9433140E9442
:100EB000B4010E94AB0179E0371266C089818930A4
:100EC00009F068C00431110508F066C080917A0607
:100ED00090917B06805D0E94721480E50F900F90C8
:100EE0000F90DF91CF911F910F91FF90EF90DF90C6
:100EF000CF90BF90AF909F908F907F906F905F90BA
:100F00004F903F902F900C94721480916E069091A8
:100F10006F06A0917006B09171068D579140A1099E
:100F2000B10988199909AA09BB098797A105B105D3
:100F300008F038CF33941B8235CF80916E069091A4
:100F40006F06A0917006B09171068C199D09AE09CB
:100F5000BF0983389340A105B105A0F480916E06C6
:100F600090916F06A0917006B09171068C199D0941
:100F7000AE09BF09803A9140A105B10518F0798109
:100F80007F5F79831A822BCF80E08F5C0E9472147E
:100F900086E4A4CF81E0F9CF82E0F7CF2F923F9291
:100FA0004F925F926F927F928F929F92AF92BF9279
:100FB000CF92DF92EF92FF920F931F93CF93DF9325
:100FC000CDB7DEB7C856D1090FB6F894DEBF0FBE55
:100FD000CDBF82B18F7C82B92FEF34E34CE021503A
:100FE00030404040E1F700C0000048B18091390234
:100FF00021E030E0B90102C0660F771F8A95E2F761
:10100000CB018095842388B97FEF89E698E1715000
:1010100080409040E1F700C0000048B18091330269
:10102000D90102C0AA0FBB1F8A95E2F7CD019091AA
:10103000360201C0220F9A95EAF7822B809584230D
:1010400088B9BFEFE4E3FCE0B150E040F040E1F7E5
:1010500000C0000083EE93E00E94D6148FE39CE969
:101060000197F1F700C0000085EF93E00E94D614CD
:1010700020916E0630916F06409170065091710676
:10108000A9962CAF3DAF4EAF5FAFA9970E94A101CB
:101090000E94AD010E942D140E9439140E94451433
:1010A0000E94B7130E94AB1322E3E5E7F2E0CE0102
:1010B0000196DC0101900D922A95E1F740916E06B0
:1010C00050916F0660917006709171061092E00663
:1010D0001092E1061092E206912CF12CC12CB12C59
:1010E00010E0312C212CA5961CAE1DAE1EAE1FAEFD
:1010F000A597A1961CAE1DAE1EAE1FAEA197412CAA
:10110000512C3201D12C00E0A12CE12CAE01455C28
:101110005F4F6D965FAF4EAF6D97809169068823E4
:10112000F1F08091E0068919990B97FF03C0919522
:10113000819591098C3491054CF0FF2039F0DD2028
:1011400009F45BC151E0D51609F46DC19090E00639
:101150008091E1068091E206E394109269063AE0FC
:10116000E3123EC06091E4067091E5068091E606C8
:101170009091E7062091E9063091EA0650E040E0C0
:101180000E940B15CA01B9010E945C150E94C81586
:101190000E942D159B0122193309293E3F4F94F4DB
:1011A000F11010C020916E0630916F0640917006CC
:1011B00050917106A5962CAF3DAF4EAF5FAFA5978E
:1011C000FF24F3941092E4061092E5061092E606CE
:1011D0001092E7061092EA061092E9061B01E12C34
:1011E00080916706882351F0FF2041F0002309F425
:1011F00038C1013009F43FC11092670680916E0634
:1012000090916F06A0917006B0917106A9962CADD1
:101210003DAD4EAD5FADA997821B930BA40BB50BF3
:101220008D3A9D40A105B10510F4CC20E1F1C090AC
:101230007506CC2009F444C188E0E7EAF2E0DE015B
:10124000D39601900D928A95E1F76D96AEADBFAD44
:101250006D97E0E21D92EA95E9F788248394810E68
:10126000E12FF0E0EE0FFF1F21E030E02C0F3D1FDB
:10127000E20FF31F60817181CE01C3960E94201698
:101280006FED73E0CE01C3960E942016CE01C39687
:101290000E94D61439E18316B9F1F1100E94591455
:1012A00010927506182D80916E0690916F06A09190
:1012B0007006B0917106A5964CAD5DAD6EAD7FAD7B
:1012C000A597841B950BA60BB70B893B9442A105F0
:1012D000B10510F0F11018C080916E0690916F0664
:1012E000A0917006B0917106A9962CAD3DAD4EADA2
:1012F0005FADA997821B930BA40BB50B8133954768
:10130000A105B10508F409CF4FEF59E668E1415056
:1013100050406040E1F700C0000085ED93E00E947E
:10132000D6147FEF89E698E1715080409040E1F754
:1013300000C0000089EC93E00E94D614AFEFB9E63C
:10134000E8E1A150B040E040E1F700C0000082B108
:10135000806382B948B18091390221E030E0B9015F
:1013600002C0660F771F8A95E2F7CB019091330296
:10137000B90101C0660F9A95EAF7862B842B9091EC
:10138000360201C0220F9A95EAF7822B88B90E9493
:10139000B1130E9459140E943F140E9433140E94FA
:1013A000B4010E94AB017AE0A7128DC0B71291C0C0
:1013B0008AE02816310408F08EC083E30E9472147C
:1013C00080E50E947214C859DF4F0FB6F894DEBF53
:1013D0000FBECDBFDF91CF911F910F91FF90EF9086
:1013E000DF90CF90BF90AF909F908F907F906F9045
:1013F0005F904F903F902F9008958091E00698164F
:1014000008F0A4CE60916E0670916F068091700610
:1014100090917106A1966CAF7DAF8EAF9FAFA197F3
:10142000DD24D39493CE80916E0690916F06A091A7
:101430007006B09171068D579140A109B109A1962E
:101440002CAD3DAD4EAD5FADA197821B930BA40BB0
:10145000B50B8797A105B10508F078CEA394D12CE0
:1014600075CE40906E0650906F066090700670903A
:10147000710601E0C1CE80916E0690916F06A09139
:101480007006B091710684199509A609B7098338C9
:101490009340A105B10590F480916E0690916F067E
:1014A000A0917006B091710684199509A609B70933
:1014B000803A9140A105B10508F0B39400E09CCEBC
:1014C000CC24C394F0CE80E08F5C0E94721486E43A
:1014D00078CF81E0F9CF82E0F7CF8F929F92AF92E1
:1014E000BF92CF92DF92EF92FF92CF93DF9348B1FA
:1014F0008091390221E030E0B90102C0660F771F08
:101500008A95E2F7CB018095842388B97FEF89E63D
:1015100098E1715080409040E1F700C0000048B170
:1015200080913302B90102C0660F771F8A95E2F7F6
:10153000CB0190913602B90101C0660F9A95EAF786
:10154000862B8095842388B97FEF87EA91E67150D6
:1015500080409040E1F700C0000087B190914202C6
:1015600001C0220F9A95EAF7282B27B90E94A10102
:101570000E94AD010E942D14C0906E06D0906F069F
:10158000E0907006F09071061092E0061092E1066D
:101590001092E206E0E0C0E0812C912C540140E082
:1015A00050E0BA0130E020E0D0E080916906882365
:1015B00029F18091E0068E1B990B97FF03C091954E
:1015C000819591098C3491058CF0313009F49DC0DE
:1015D0008091E006E81708F0AEC080906E0690900B
:1015E0006F06A0907006B090710631E0E091E006C1
:1015F0008091E1068091E20610926906809167066B
:101600008823F9F080916E0690916F06A091700684
:10161000B09171068C199D09AE09BF0989309740B8
:10162000A105B10560F0213009F487C040916E0634
:1016300050916F06609170067091710621E01092D2
:10164000670680916E0690916F06A0917006B0912A
:1016500071068C199D09AE09BF0981309941A10518
:10166000B10508F4A2CF0E9433140E94B4010E9475
:10167000AB012F9A809103020E94B8002FEF49E638
:1016800068E1215040406040E1F700C000000E9446
:10169000D5132F9848B18091390221E030E0B9018B
:1016A00002C0660F771F8A95E2F7CB019091330253
:1016B000B90101C0660F9A95EAF7862B842B9091A9
:1016C0003602A90101C0440F9A95EAF7842B909144
:1016D000420201C0220F9A95EAF7822B88B9D430D2
:1016E00009F050C0C43009F053C083E30E94721463
:1016F00080E5DF91CF91FF90EF90DF90CF90BF908A
:10170000AF909F908F900C94721480916E06909180
:101710006F06A0917006B09171068D579140A10996
:10172000B10988199909AA09BB098797A105B105CB
:1017300008F05CCFDF5F30E059CF80916E0690916A
:101740006F06A0917006B0917106841B950BA60BD5
:10175000B70B83389340A105B10590F480916E06D4
:1017600090916F06A0917006B0917106841B950B45
:10177000A60BB70B803A9140A105B10508F0CF5FE9
:1017800020E05DCF80E08F5C0E94721486E4B1CFD0
:1017900081E0F9CF8F929F92AF92BF92CF92DF926A
:1017A000EF92FF92CF93DF9348B18091390221E00D
:1017B00030E0B90102C0660F771F8A95E2F7CB01CE
:1017C0008095842388B97FEF89E698E17150804045
:1017D0009040E1F700C0000048B180913302B901A8
:1017E00002C0660F771F8A95E2F7CB01909136020F
:1017F000B90101C0660F9A95EAF7862B809584237C
:1018000088B97FEF87EA91E6715080409040E1F718
:1018100000C00000809107019091450201C0220F95
:101820009A95EAF7282B209307010E94A1010E94B4
:10183000AD010E942D14C0906E06D0906F06E0900E
:101840007006F09071061092E0061092E106109278
:10185000E206E0E0C0E0812C912C540140E050E031
:10186000BA0130E020E0D0E080916906882329F1B8
:101870008091E0068E1B990B97FF03C0919581958F
:1018800091098C3491058CF0313009F4A1C080911C
:10189000E006E81708F0B2C080906E0690906F06E0
:1018A000A0907006B090710631E0E091E006809162
:1018B000E1068091E206109269068091670688230E
:1018C000F9F080916E0690916F06A0917006B0912C
:1018D00071068C199D09AE09BF09813B9440A10591
:1018E000B10560F0213009F48BC040916E06509133
:1018F0006F06609170067091710621E01092670684
:1019000080916E0690916F06A0917006B09171065D
:101910008C199D09AE09BF09813A9F40A105B10507
:1019200008F4A2CF0E9433140E94B4010E94AB01BC
:101930002F9A809103020E94B8002FEF49E668E1D8
:10194000215040406040E1F700C000000E94D513E4
:101950002F9848B18091390221E030E0B90102C0EE
:10196000660F771F8A95E2F7CB0190913302B90198
:1019700001C0660F9A95EAF7862B842B9091360268
:10198000A90101C0440F9A95EAF7842B88B9809188
:1019900008019091450201C0220F9A95EAF7282B81
:1019A00020930801D23009F050C0C23009F053C072
:1019B00083E30E94721480E5DF91CF91FF90EF9056
:1019C000DF90CF90BF90AF909F908F900C94721447
:1019D00080916E0690916F06A0917006B09171068D
:1019E0008D579140A109B10988199909AA09BB0924
:1019F0008797A105B10508F058CFDF5F30E055CFDC
:101A000080916E0690916F06A0917006B09171065C
:101A1000841B950BA60BB70B83389340A105B1052A
:101A200090F480916E0690916F06A0917006B0912F
:101A30007106841B950BA60BB70B803A9140A1054C
:101A4000B10508F0CF5F20E059CF80E08F5C0E94A5
:101A5000721486E4B1CF81E0F9CF8F929F92AF925A
:101A6000BF92CF92DF92EF92FF92CF93DF9348B174
:101A70008091390221E030E0B90102C0660F771F82
:101A80008A95E2F7CB018095842388B97FEF89E6B8
:101A900098E1715080409040E1F700C0000048B1EB
:101AA00080913302B90102C0660F771F8A95E2F771
:101AB000CB0190913602B90101C0660F9A95EAF701
:101AC000862B8095842388B97FEF87EA91E6715051
:101AD00080409040E1F700C00000809107019091A4
:101AE000480201C0220F9A95EAF7282B209307019C
:101AF0000E94A1010E94AD010E942D14C0906E06AB
:101B0000D0906F06E0907006F09071061092E0069B
:101B10001092E1061092E206E0E0C0E0812C912CE8
:101B2000540140E050E0BA0130E020E0D0E0809184
:101B30006906882329F18091E0068E1B990B97FF97
:101B400003C09195819591098C3491058CF03130C9
:101B500009F4A1C08091E006E81708F0B2C08090B7
:101B60006E0690906F06A0907006B090710631E0FE
:101B7000E091E0068091E1068091E206109269060C
:101B8000809167068823F9F080916E0690916F0628
:101B9000A0917006B09171068C199D09AE09BF091C
:101BA00089309740A105B10560F0213009F48BC060
:101BB00040916E0650916F066091700670917106AB
:101BC00021E01092670680916E0690916F06A091B9
:101BD0007006B09171068C199D09AE09BF0981305C
:101BE0009941A105B10508F4A2CF0E9433140E94C7
:101BF000B4010E94AB012F9A809103020E94B800A9
:101C00002FEF49E668E1215040406040E1F700C015
:101C100000000E94D5132F9848B18091390221E02D
:101C200030E0B90102C0660F771F8A95E2F7CB0159
:101C300090913302B90101C0660F9A95EAF7862B9D
:101C4000842B90913602A90101C0440F9A95EAF7BE
:101C5000842B88B9809108019091480201C0220F1D
:101C60009A95EAF7282B20930801D43009F050C048
:101C7000C43009F053C083E30E94721480E5DF9101
:101C8000CF91FF90EF90DF90CF90BF90AF909F905B
:101C90008F900C94721480916E0690916F06A091B3
:101CA0007006B09171068D579140A109B10988194C
:101CB0009909AA09BB098797A105B10508F058CF72
:101CC000DF5F30E055CF80916E0690916F06A09156
:101CD0007006B0917106841B950BA60BB70B833869
:101CE0009340A105B10590F480916E0690916F0626
:101CF000A0917006B0917106841B950BA60BB70BD3
:101D0000803A9140A105B10508F0CF5F20E059CF9E
:101D100080E08F5C0E94721486E4B1CF81E0F9CF3D
:101D20008F929F92AF92BF92CF92DF92EF92FF92EB
:101D3000CF93DF9348B18091390221E030E0B901BF
:101D400002C0660F771F8A95E2F7CB018095842346
:101D500088B97FEF89E698E1715080409040E1F7C3
:101D600000C0000048B180913302B90102C0660F83
:101D7000771F8A95E2F7CB0190913602B90101C035
:101D8000660F9A95EAF7862B8095842388B97FEFB2
:101D900087EA91E6715080409040E1F700C0000072
:101DA0008091070190914B0201C0220F9A95EAF7AA
:101DB000282B209307010E94A1010E94AD010E94DF
:101DC0002D14C0906E06D0906F06E0907006F090D3
:101DD00071061092E0061092E1061092E206E0E031
:101DE000C0E0812C912C540140E050E0BA0130E079
:101DF00020E0D0E080916906882329F18091E006F7
:101E00008E1B990B97FF03C09195819591098C3496
:101E100091058CF0313009F4B3C08091E006E817E9
:101E200008F0C4C080906E0690906F06A090700677
:101E3000B090710631E0E091E0068091E10680917A
:101E4000E20610926906809167068823F9F0809176
:101E50006E0690916F06A0917006B09171068C1974
:101E60009D09AE09BF09813B9440A105B10560F011
:101E7000213009F49DC040916E0650916F0660912B
:101E800070067091710621E01092670680916E06CF
:101E900090916F06A0917006B09171068C199D0902
:101EA000AE09BF09813A9F40A105B10508F4A2CF50
:101EB0000E9433140E94B4010E94AB012F9A8091BA
:101EC00003020E94B8002FEF49E668E1215040402C
:101ED0006040E1F700C000000E94D5132F9848B180
:101EE0002091390281E090E0BC0102C0660F771FAB
:101EF0002A95E2F79B0130913302BC0101C0660FC5
:101F00003A95EAF7262B242B30913602AC0101C01A
:101F1000440F3A95EAF7242B28B940910801209103
:101F20004B02BC0102C0660F771F2A95E2F79B01A6
:101F300030914E02BC0101C0660F3A95EAF7262B9C
:101F4000242B3091510201C0880F3A95EAF7822B79
:101F500080930801D23009F050C0C23009F053C05C
:101F600083E30E94721480E5DF91CF91FF90EF90A0
:101F7000DF90CF90BF90AF909F908F900C94721491
:101F800080916E0690916F06A0917006B0917106D7
:101F90008D579140A109B10988199909AA09BB096E
:101FA0008797A105B10508F046CFDF5F30E043CF4A
:101FB00080916E0690916F06A0917006B0917106A7
:101FC000841B950BA60BB70B83389340A105B10575
:101FD00090F480916E0690916F06A0917006B0917A
:101FE0007106841B950BA60BB70B803A9140A10597
:101FF000B10508F0CF5F20E047CF80E08F5C0E9402
:10200000721486E4B1CF81E0F9CF8F929F92AF92A4
:10201000BF92CF92DF92EF92FF921F93CF93DF9305
:1020200048B12091390281E090E0BC0102C0660F06
:10203000771F2A95E2F79B012095242328B97FEF8B
:1020400019E628E1715010402040E1F700C000007F
:1020500048B120913302BC0102C0660F771F2A9558
:10206000E2F79B0130913602BC0101C0660F3A9540
:10207000EAF7262B2095242328B97FEF17EA21E6DB
:10208000715010402040E1F700C0000047B120919E
:102090003C02BC0102C0660F771F2A95E2F79B0144
:1020A00030913F0201C0880F3A95EAF7822B842BCA
:1020B00087B90E94A1010E94AD010E942D140E94C7
:1020C000B7130E94AB1380906E0690906F06A0909D
:1020D0007006B09071061092E0061092E106109220
:1020E000E206F0E0C0E0E0E0C12CD12C760140E057
:1020F00050E0BA0130E020E0D0E08091690688230A
:1021000031F18091E0068F1B990B97FF03C09195E9
:10211000819591098C3491058CF0313009F4B2C06D
:102120008091E006F81708F0C3C0C0906E06D0900A
:102130006F06E0907006F090710631E0F091E006D5
:102140008091E1068091E206EF5F10926906EA3025
:1021500069F41092E4061092E5061092E6061092D9
:10216000E7061092EA061092E906E0E08091670621
:10217000882371F010926706213009F49BC04091CA
:102180006E0650916F06609170067091710621E0A5
:1021900080916E0690916F06A0917006B0917106C5
:1021A00088199909AA09BB09813A9F40A105B1057F
:1021B00008F4A3CF0E9433140E94B4010E94AB0123
:1021C0000E94C01348B18091390221E030E0B9018A
:1021D00002C0660F771F8A95E2F7CB019091330218
:1021E000B90101C0660F9A95EAF7862B842B90916E
:1021F0003602A90101C0440F9A95EAF7842B909109
:102200003C02A90101C0440F9A95EAF7842B9091F2
:102210003F0201C0220F9A95EAF7822B88B960919C
:10222000E4067091E5068091E6069091E70620911C
:10223000E9063091EA0650E040E00E940B15CA0121
:10224000B9010E945C150E94C8150E942D15D3305B
:1022500009F055C0C33009F058C06131710508F06C
:1022600056C083E30E94721480E5DF91CF911F91E5
:10227000FF90EF90DF90CF90BF90AF909F908F90A6
:102280000C94721480916E0690916F06A091700666
:10229000B09171068D579140A109B1098C199D0922
:1022A000AE09BF098797A105B10508F047CFDF5FE9
:1022B00030E044CF80916E0690916F06A091700639
:1022C000B0917106841B950BA60BB70B8338934016
:1022D000A105B10590F480916E0690916F06A091D2
:1022E0007006B0917106841B950BA60BB70B803A54
:1022F0009140A105B10508F0CF5F20E049CF80E013
:102300008F5C0E94721486E4B0CF81E0F9CF82E046
:10231000F7CFEF92FF920F931F93CF93DF93CDB739
:10232000DEB760970FB6F894DEBF0FBECDBF8091C9
:102330000701826080930701809108018260809389
:1023400008012FEF81EE94E0215080409040E1F7AA
:1023500000C00000FE01319680E1DF011D928A95E8
:10236000E9F781E0888B8F017E01B1E1EB0EF11C72
:10237000F80181918F010E94AC140E151F05C1F761
:10238000809108018D7F8093080160960FB6F894C4
:10239000DEBF0FBECDBFDF91CF911F910F91FF9098
:1023A000EF90089581FF05C0129A80FF04C0139A30
:1023B00008951298FACF139808951F920F920FB6AE
:1023C0000F9211248F939F93AF93BF9380916E06CA
:1023D00090916F06A0917006B09171060196A11DB3
:1023E000B11D80936E0690936F06A0937006B09314
:1023F0007106BF91AF919F918F910F900FBE0F907B
:102400001F9018951F920F920FB60F9211240BB6C2
:102410000F922F933F934F935F936F937F938F937D
:102420009F93AF93BF93EF93FF9380917206813098
:1024300019F580916A0690916B068093E00683E01F
:102440000E94D21182E08093720610926B06109265
:102450006A06FF91EF91BF91AF919F918F917F910C
:102460006F915F914F913F912F910F900BBE0F9005
:102470000FBE0F901F90189580917206823059F40C
:1024800080916A0690916B068093E10681E00E943C
:10249000D21183E0D8CF80917206833079F4809195
:1024A0006A0690916B068093E20680E00E94D2114A
:1024B00081E08093720680936906C7CF81E08093A4
:1024C000720680E00E94D211C0CF1F920F920FB609
:1024D0000F9211248F9381E0809375068F910F9056
:1024E0000FBE0F901F9018951F920F920FB60F926C
:1024F00011240BB60F922F933F934F935F938F93BB
:102500009F93EF93FF9380917906813069F0823039
:1025100031F11092B20081E08093790680916900D8
:102520008E7F809369000CC08091B2008093780602
:102530008091690081608093690082E080937906D0
:10254000FF91EF919F918F915F914F913F912F91CB
:102550000F900BBE0F900FBE0F901F90189580919B
:10256000B200809377061092B200809169008E7F4E
:102570008093690091E0909379068091770620918D
:102580007806E0917A06F0917B06821BEE0FFF1F22
:10259000E551F94F8083E0917A06F0917B068091B6
:1025A0007706EE0FFF1FE551F94F818320917A06E0
:1025B00030917B06A9014F5F5F4F50937B0640939C
:1025C0007A062436310508F4BBCF90937606E89856
:1025D000B7CF1F920F920FB60F9211240BB60F9226
:1025E0008F939F93EF93FF9381E080936706E9E6D3
:1025F000F0E0808190E189278083FF91EF919F91A6
:102600008F910F900BBE0F900FBE0F901F901895DB
:102610001F920F920FB60F9211248F939F93809168
:102620006A0690916B06019690936B0680936A06FA
:102630009F918F910F900FBE0F901F9018951F9232
:102640000F920FB60F9211248F938091C600809342
:10265000E80681E0809368068F910F900FBE0F907F
:102660001F9018951F920F920FB60F9211240F9082
:102670000FBE0F901F9018951F920F920FB60F92DA
:1026800011242F934F935F936F937F938F939F9317
:10269000AF93BF93809179008F57990B97FF03C039
:1026A0009195819591098093E3062091E3068091AD
:1026B000E3064091E4065091E5066091E6067091CC
:1026C000E706289FC0011124092E000CAA0BBB0BA2
:1026D000840F951FA61FB71F8093E4069093E5060D
:1026E000A093E606B093E7068091E9069091EA068A
:1026F00001969093EA068093E906BF91AF919F916E
:102700008F917F916F915F914F912F910F900FBE9D
:102710000F901F901895ECE7F0E080818064808333
:10272000808180628083EAE7F0E080818760808337
:1027300080818062808380818860808380818068DE
:1027400080830895ECE7F0E080818260808380815F
:102750008E7F80830895ECE7F0E080818360808342
:102760000895EAE7F0E08081877F80830895EAE7B3
:10277000F0E0808188608083808180648083089518
:10278000089580917B00806480937B0080917A0023
:1027900086FDFCCF80917800909179000895519A40
:1027A000599A84B1866084B90895599886E090E07A
:1027B00024E630E0A901082E02C0559547950A94F9
:1027C000E2F740FF1DC02A9A299A2998019790F7AD
:1027D00090E080E02BE030E041E050E01B9B09C03E
:1027E000BA01022E02C0660F771F0A94E2F7862B09
:1027F000972B299A29982150310980F7599A0895E1
:102800002A98E2CF84B1876084B9289A8CB5836511
:102810008CBD08958EBD0DB407FEFDCF8EB5089515
:1028200084B5826084BD85B5836085BDEEE6F0E049
:1028300080818260808389EF87BD0895E1E8F0E0C0
:1028400080818860808380818360808380E493E0DE
:1028500090938900809388000895EFE6F0E08081EE
:10286000826080830895EFE6F0E080818D7F808331
:102870000895E1EBF0E08081846080830895E1EBCE
:10288000F0E080818B7F80830895E1E9F0E0808132
:1028900088608083808185608083E1E7F0E08081CB
:1028A0008260808383ED90E39093990080939800F9
:1028B0000895E1E7F0E080818D7F8083089580E1D5
:1028C0008093C4001092C500E0ECF0E0808182604B
:1028D0008083E1ECF0E08081886180838081806882
:1028E000808308959091C00095FFFCCF8093C6002F
:1028F0000895CF93DF93EC018991811103C0DF919B
:10290000CF9108950E947214F7CF80E18093CC009C
:102910001092CD00E8ECF0E0808182608083E9ECE9
:10292000F0E080818861808308959091C80095FFD0
:10293000FCCF8093CE00089580E18093D400109264
:10294000D500E0EDF0E0808182608083E1EDF0E091
:1029500080818861808308959091D00095FFFCCF9D
:102960008093D6000895CF93DF93EC018991811174
:1029700003C0DF91CF9108950E94AC14F7CF8FEC84
:102980008093340110923501E0E3F1E080818260B0
:102990008083E1E3F1E080818861808308959091F4
:1029A000300195FFFCCF809336010895CF93DF93DC
:1029B000EC018991811103C0DF91CF9108950E94AC
:1029C000CF14F7CFCF93DF931F921F92CDB7DEB70F
:1029D0000E942C011A821982809168068823E1F3F3
:1029E0006091E806109268068091080181608093EA
:1029F000080170E0CE0101960E94F3008091080169
:102A00008E7F8093080183B7816083BF889583B7E9
:102A10008E7F83BFE1CFA1E21A2EAA1BBB1BFD0153
:102A20000DC0AA1FBB1FEE1FFF1FA217B307E407AD
:102A3000F50720F0A21BB30BE40BF50B661F771F05
:102A4000881F991F1A9469F76095709580959095E5
:102A50009B01AC01BD01CF0108950E94A11588F032
:102A60009F5798F0B92F9927B751B0F0E1F0660F52
:102A7000771F881F991F1AF0BA95C9F714C0B13093
:102A800091F00E94BB15B1E008950C94BB15672F1F
:102A9000782F8827B85F39F0B93FCCF386957795C2
:102AA0006795B395D9F73EF49095809570956195AB
:102AB0007F4F8F4F9F4F0895E89409C097FB3EF4D6
:102AC00090958095709561957F4F8F4F9F4F99237B
:102AD000A9F0F92F96E9BB279395F69587957795F9
:102AE0006795B795F111F8CFFAF4BB0F11F460FFB9
:102AF0001BC06F5F7F4F8F4F9F4F16C0882311F011
:102B000096E911C0772321F09EE8872F762F05C024
:102B1000662371F096E8862F70E060E02AF09A95BF
:102B2000660F771F881FDAF7880F9695879597F9B4
:102B3000089557FD9058440F551F59F05F3F71F0AD
:102B40004795880F97FB991F61F09F3F79F0879514
:102B50000895121613061406551FF2CF4695F1DF9D
:102B600008C0161617061806991FF1CF869571052D
:102B7000610508940895E894BB2766277727CB0161
:102B800097F9089519F416F40C9416160C94081677
:102B90000E94A115B8F39923C9F3B6F39F57550BBB
:102BA00087FF0E9419160024A0E640EA9001805891
:102BB0005695979528F4805C660F771F881F20F044
:102BC00026173707480730F4621B730B840B202944
:102BD00031294A2BA69517940794202531254A2799
:102BE00058F7660F771F881F20F02617370748070A
:102BF00030F4620B730B840B200D311D411DA09529
:102C000081F7B901842F9158880F9695879508957B
:102C10009F3F31F0915020F4879577956795B79550
:102C2000880F911D9695879597F908959FEF80ECF1
:102C3000089591505040660F771F881FD2F708956E
:102C4000FB01DC010D900020E9F7119701900D9236
:0A2C50000020E1F70895F894FFCF8B
:102C5A0070AB0578B00574B5057CBA0572BF057A04
:102C6A00C40576C9057ECE0571D30579D30575D31A
:102C7A00057DD30573D3057BD30577D3057FD305AC
:102C8A00B0D80500DE0501E70502F00503FA0504E0
:102C9A000506051006071906062206052B06043442
:102CAA0006033F06024A06045306055806065D0651
:102CBA00076106000000C00913C22E79C00913C0BB
:102CCA00091302256783050104050409040D04118B
:102CDA0004150419041D042104250429042D0431B2
:102CEA0004350439043D044104450449044D0451A2
:102CFA0004550459045D043A30317731303D0000FF
:102D0A0000000000000000000000000000000000B9
:102D1A000000000000000000000000000000006148
:102D2A0004B6016A042103710453047F046A054D41
:102D3A000665068D04CE079A046D0AAE04CA0BC353
:102D4A00042D0DD704900EEC040510A705AD00F86C
:102D5A0004AD000605AD001405AD002205AD003036
:102D6A0005AD003E05AD004C05AD005A05AD006845
:102D7A0005AD007605AD008505AD009405AD00A34F
:102D8A0005AD00000030000100010033000200021E
:102D9A00003300030003003300040004003300057D
:102DAA000005003300060006003300070007003361
:102DBA00000800080033000900090033000A000A6D
:102DCA000033000B000B0033000D00010031000D31
:102DDA0000020031000D00030031000D0004003133
:102DEA00000D00050031000D00060031000D00073E
:102DFA000031000D00080031000D00090031000DFE
:102E0A00000A0031000D000B0031000D000C0031EA
:102E1A00000D00000031000D003A30317731323DAB
:102E2A00302C0D0A003A30317732303D302C302CBC
:102E3A000D0A003A30317732303D3136352C333095
:102E4A00302C0D0A003A30317731323D312C0D0ADF
:102E5A0000313636003136370031363800313639EE
:102E6A0000313730003137310031373200313733F2
:102E7A0000313734003137350031373600313737D2
:102E8A0000313738003137390031383000313831C4
:102E9A0000313832003138330031383400313835B6
:102EAA000031383600313837003138380031383996
:102EBA0000504F574552204F4E0047524F554E44EF
:102ECA000050494C4F54205354415445204100501E
:102EDA00494C4F542053544154452042004F5645C3
:102EEA00522043555252454E5400474643495F4C7F
:102EFA00315F4C4F575F4C45414B41474500474670
:102F0A0043495F4C315F484947485F4C45414B4113
:102F1A00474500474643495F4C325F4C4F575F4C29
:102F2A0045414B41474500474643495F4C325F485C
:102F3A004947485F4C45414B414745005354554327
:102F4A004B2052454C41590053544154452041426B
:102F5A004F525420310053544154452041424F525C
:102F6A005420320053544154452041424F52542078
:102F7A00330053544154452041424F5254203400A7
:102F8A0053544154452041424F5254203500535422
:102F9A004154452041424F52542036005354415423
:102FAA00452041424F525420370053544154452042
:102FBA0041424F5254203800535441544520414213
:102FCA004F525420390053544154452041424F52E4
:102FDA00542031300053544154452041424F5254F9
:102FEA002031310053544154452041424F5254201C
:102FFA0031320054484520454E4400545031320085
:10300A005450313900545032310054503232005445
:10301A005032350054503236005450333500545033
:10302A003338004E4F4E45004A4C494E4B005357D9
:10303A005F4C315F494E0053575F4C325F494E0037
:10304A0053575F474E445F494E0053575F535441AD
:10305A004B5F4C310053575F5354414B5F4C320026
:10306A0053575F4C315F4C4C0053575F4C315F48AC
:10307A004C0053575F4C325F4C4C0053575F4C32F5
:10308A005F484C0053575F53544154455F420053C5
:10309A00575F53544154455F410053575F44494F6A
:1030AA00444500545032390054503330005450349F
:0630BA0000545035000037
:00000001FF
